:0300000002096989
:0C096900787FE4F6D8FD758109020800D3
:10080000758910E4F508F50975A01275B011120983
:1008100039E5086003020895E50914602614603F75
:100820001460582403706EC2A1D2A27F887E131276
:10083000093DC2A2D2A1C2A4D2A5120939C2A1D235
:10084000A08052C2A5D2A67F887E1312093DC2A6FF
:10085000D2A5C2B0D2B1120939C2A5D2A48036C283
:10086000B1D2B27F887E1312093DC2B2D2B1C2B4F6
:10087000D2B5120939C2B1D2B0801AC2B5D2B67F90
:10088000887E1312093DC2B6D2B5C2A0D2A1120908
:1008900039C2B5D2B40509E50970020508AE08FFF2
:0E08A0007C007D041209038C088D09020811EA
:040939007FE87E03D2
:04093D00AB07AA0654
:10094100E4F58DF58BD28EF582F5837C007D47AF82
:1009510003AE021208AEC3E5829FE5839E5008C232
:070961008F308FFDA380E43D
:01096800226C
:1008AE00BC000BBE0029EF8DF084FFADF022E4CC2E
:1008BE00F875F008EF2FFFEE33FEEC33FCEE9DECF7
:1008CE00984005FCEE9DFE0FD5F0E9E4CEFD22ED3D
:1008DE00F8F5F0EE8420D21CFEADF075F008EF2F87
:1008EE00FFED33FD4007985006D5F0F222C398FD78
:0508FE000FD5F0EA2215
:10090300C2D5EC30E709B2D5E4C39DFDE49CFCEE0F
:1009130030E715B2D5E4C39FFFE49EFE1208AEC3D1
:10092300E49DFDE49CFC80031208AE30D507C3E4CC
:060933009FFFE49EFE227E
:00000001FF
